Component: ARM Compiler 5.06 update 7 (build 960) Tool: armlink [4d3601]

==============================================================================

Section Cross References

    main.o(i.main) refers to delay.o(i.SysTick_init) for SysTick_init
    main.o(i.main) refers to uart3.o(i.UART3_Init) for UART3_Init
    main.o(i.main) refers to uart1.o(i.UART1_Init) for UART1_Init
    main.o(i.main) refers to jy901.o(i.jy901_init) for jy901_init
    main.o(i.main) refers to delay.o(i.Delay_Ms) for Delay_Ms
    main.o(i.main) refers to adc.o(i.Adc_Init) for Adc_Init
    main.o(i.main) refers to dio.o(i.GPIO_Config) for GPIO_Config
    main.o(i.main) refers to motor.o(i.MOTOR_GPIO_Init) for MOTOR_GPIO_Init
    main.o(i.main) refers to motor.o(i.Motor_PWM_Init) for Motor_PWM_Init
    main.o(i.main) refers to encoder.o(i.Encoder_Init) for Encoder_Init
    main.o(i.main) refers to timer.o(i.TIM1_Init) for TIM1_Init
    main.o(i.main) refers to pid.o(i.PID_Init) for PID_Init
    main.o(i.main) refers to protocol.o(i.Is_Recv_New_Cmd) for Is_Recv_New_Cmd
    main.o(i.main) refers to protocol.o(i.Get_CMD_Length) for Get_CMD_Length
    main.o(i.main) refers to protocol.o(i.Get_RxBuffer) for Get_RxBuffer
    main.o(i.main) refers to protocol.o(i.Parse_Cmd_Data) for Parse_Cmd_Data
    main.o(i.main) refers to protocol.o(i.Clear_CMD_Flag) for Clear_CMD_Flag
    main.o(i.main) refers to timer.o(i.Timer_Get_Count) for Timer_Get_Count
==============================================================================

Removing Unused input sections from the image.

    Removing main.o(.rev16_text), (4 bytes).
    Removing main.o(.revsh_text), (4 bytes).
    Removing pid.o(.rev16_text), (4 bytes).
    Removing pid.o(.revsh_text), (4 bytes).
    Removing pid.o(i.Incremental_PI_B), (172 bytes).
    Removing pid.o(i.PIDCal_car), (188 bytes).
    Removing pid.o(i.PID_Get_Offset), (12 bytes).
    Removing pid.o(i.Pid_Average_Speed_B), (172 bytes).
    Removing pid.o(i.Pid_Average_Speed_D), (172 bytes).
    Removing pid.o(i.reset_PID), (16 bytes).
    Removing app_motion_control.o(.rev16_text), (4 bytes).
    Removing app_motion_control.o(.revsh_text), (4 bytes).
    Removing protocol.o(.rev16_text), (4 bytes).
    Removing protocol.o(.revsh_text), (4 bytes).
    Removing protocol.o(i.Clear_RxBuffer), (24 bytes).
    Removing jy901.o(.rev16_text), (4 bytes).
    Removing jy901.o(.revsh_text), (4 bytes).
    Removing delay.o(.rev16_text), (4 bytes).
==============================================================================

Image Symbol Table

    Local Symbols

    Symbol Name                              Value     Ov Type        Size  Object(Section)

    ../clib/../cmprslib/zerorunl2.c          0x00000000   Number         0  __dczerorl2.o ABSOLUTE
    ../clib/microlib/init/entry.s            0x00000000   Number         0  entry2.o ABSOLUTE
    ../clib/microlib/init/entry.s            0x00000000   Number         0  entry7b.o ABSOLUTE
    ../clib/microlib/init/entry.s            0x00000000   Number         0  entry9a.o ABSOLUTE
    ../clib/microlib/init/entry.s            0x00000000   Number         0  entry12b.o ABSOLUTE
    ../clib/microlib/init/entry.s            0x00000000   Number         0  entry8a.o ABSOLUTE
    ../clib/microlib/init/entry.s            0x00000000   Number         0  entry8b.o ABSOLUTE
    ../clib/microlib/init/entry.s            0x00000000   Number         0  entry9b.o ABSOLUTE
    ../clib/microlib/init/entry.s            0x00000000   Number         0  entry12a.o ABSOLUTE
    ../clib/microlib/init/entry.s            0x00000000   Number         0  entry5.o ABSOLUTE
    ../clib/microlib/init/entry.s            0x00000000   Number         0  entry.o ABSOLUTE
    ../clib/microlib/init/entry.s            0x00000000   Number         0  entry10a.o ABSOLUTE
    ../clib/microlib/init/entry.s            0x00000000   Number         0  entry7a.o ABSOLUTE
    ../clib/microlib/init/entry.s            0x00000000   Number         0  entry10b.o ABSOLUTE
    ../clib/microlib/init/entry.s            0x00000000   Number         0  entry11a.o ABSOLUTE
    ../clib/microlib/init/entry.s            0x00000000   Number         0  entry11b.o ABSOLUTE
    ../clib/microlib/longlong.c              0x00000000   Number         0  llushr.o ABSOLUTE
    ../clib/microlib/longlong.c              0x00000000   Number         0  llshl.o ABSOLUTE
    ../clib/microlib/stubs.s                 0x00000000   Number         0  iusefp.o ABSOLUTE
    ../fplib/microlib/d2f.c                  0x00000000   Number         0  d2f.o ABSOLUTE
    ../fplib/microlib/f2d.c                  0x00000000   Number         0  f2d.o ABSOLUTE
    ../fplib/microlib/fpadd.c                0x00000000   Number         0  fadd.o ABSOLUTE
    ../fplib/microlib/fpdiv.c                0x00000000   Number         0  ddiv.o ABSOLUTE
    ../fplib/microlib/fpepilogue.c           0x00000000   Number         0  fepilogue.o ABSOLUTE
    ../fplib/microlib/fpepilogue.c           0x00000000   Number         0  depilogue.o ABSOLUTE
    ../fplib/microlib/fpfix.c                0x00000000   Number         0  ffixi.o ABSOLUTE
    ../fplib/microlib/fpfix.c                0x00000000   Number         0  dfixui.o ABSOLUTE
    ../fplib/microlib/fpfix.c                0x00000000   Number         0  dfixi.o ABSOLUTE
    ../fplib/microlib/fpflt.c                0x00000000   Number         0  fflti.o ABSOLUTE
    ../fplib/microlib/fpflt.c                0x00000000   Number         0  ffltui.o ABSOLUTE
    ../fplib/microlib/fpflt.c                0x00000000   Number         0  dflti.o ABSOLUTE
    ../fplib/microlib/fpmul.c                0x00000000   Number         0  dmul.o ABSOLUTE
    ../fplib/microlib/fpmul.c                0x00000000   Number         0  fmul.o ABSOLUTE
    STM32F10xLib\M3\system_stm32f10x.c       0x00000000   Number         0  system_stm32f10x.o ABSOLUTE
    STM32F10xLib\\M3\\system_stm32f10x.c     0x00000000   Number         0  system_stm32f10x.o ABSOLUTE
    STM32F10xLib\\src\\misc.c                0x00000000   Number         0  misc.o ABSOLUTE
    STM32F10xLib\\src\\stm32f10x_adc.c       0x00000000   Number         0  stm32f10x_adc.o ABSOLUTE
    STM32F10xLib\\src\\stm32f10x_exti.c      0x00000000   Number         0  stm32f10x_exti.o ABSOLUTE
    STM32F10xLib\\src\\stm32f10x_gpio.c      0x00000000   Number         0  stm32f10x_gpio.o ABSOLUTE
    STM32F10xLib\\src\\stm32f10x_rcc.c       0x00000000   Number         0  stm32f10x_rcc.o ABSOLUTE
    STM32F10xLib\\src\\stm32f10x_tim.c       0x00000000   Number         0  stm32f10x_tim.o ABSOLUTE
    STM32F10xLib\\src\\stm32f10x_usart.c     0x00000000   Number         0  stm32f10x_usart.o ABSOLUTE
    STM32F10xLib\src\misc.c                  0x00000000   Number         0  misc.o ABSOLUTE
    STM32F10xLib\src\stm32f10x_adc.c         0x00000000   Number         0  stm32f10x_adc.o ABSOLUTE
    STM32F10xLib\src\stm32f10x_exti.c        0x00000000   Number         0  stm32f10x_exti.o ABSOLUTE
    STM32F10xLib\src\stm32f10x_gpio.c        0x00000000   Number         0  stm32f10x_gpio.o ABSOLUTE
    STM32F10xLib\src\stm32f10x_rcc.c         0x00000000   Number         0  stm32f10x_rcc.o ABSOLUTE
    STM32F10xLib\src\stm32f10x_tim.c         0x00000000   Number         0  stm32f10x_tim.o ABSOLUTE
    STM32F10xLib\src\stm32f10x_usart.c       0x00000000   Number         0  stm32f10x_usart.o ABSOLUTE
    STM32F10xLib\startup\startup_stm32f10x_hd.s 0x00000000   Number         0  startup_stm32f10x_hd.o ABSOLUTE
    Source\APP\JY901.c                       0x00000000   Number         0  jy901.o ABSOLUTE
    Source\APP\Main.c                        0x00000000   Number         0  main.o ABSOLUTE
    Source\APP\app_motion_control.c          0x00000000   Number         0  app_motion_control.o ABSOLUTE
    Source\APP\pid.c                         0x00000000   Number         0  pid.o ABSOLUTE
    Source\APP\protocol.c                    0x00000000   Number         0  protocol.o ABSOLUTE
    Source\Drive\DIO.c                       0x00000000   Number         0  dio.o ABSOLUTE
    Source\Drive\UART1.c                     0x00000000   Number         0  uart1.o ABSOLUTE
    Source\Drive\UART3.c                     0x00000000   Number         0  uart3.o ABSOLUTE
    Source\Drive\adc.c                       0x00000000   Number         0  adc.o ABSOLUTE
    Source\Drive\delay.c                     0x00000000   Number         0  delay.o ABSOLUTE
    Source\Drive\encoder.c                   0x00000000   Number         0  encoder.o ABSOLUTE
    Source\Drive\motor.c                     0x00000000   Number         0  motor.o ABSOLUTE
    Source\Drive\timer.c                     0x00000000   Number         0  timer.o ABSOLUTE
    Source\\APP\\JY901.c                     0x00000000   Number         0  jy901.o ABSOLUTE
    Source\\APP\\Main.c                      0x00000000   Number         0  main.o ABSOLUTE
    Source\\APP\\app_motion_control.c        0x00000000   Number         0  app_motion_control.o ABSOLUTE
    Source\\APP\\pid.c                       0x00000000   Number         0  pid.o ABSOLUTE
    Source\\APP\\protocol.c                  0x00000000   Number         0  protocol.o ABSOLUTE
    Source\\Drive\\DIO.c                     0x00000000   Number         0  dio.o ABSOLUTE
    Source\\Drive\\UART1.c                   0x00000000   Number         0  uart1.o ABSOLUTE
    Source\\Drive\\UART3.c                   0x00000000   Number         0  uart3.o ABSOLUTE
    Source\\Drive\\adc.c                     0x00000000   Number         0  adc.o ABSOLUTE
    Source\\Drive\\delay.c                   0x00000000   Number         0  delay.o ABSOLUTE
    Source\\Drive\\encoder.c                 0x00000000   Number         0  encoder.o ABSOLUTE
    Source\\Drive\\motor.c                   0x00000000   Number         0  motor.o ABSOLUTE
    Source\\Drive\\timer.c                   0x00000000   Number         0  timer.o ABSOLUTE
    cdcmple.s                                0x00000000   Number         0  cdcmple.o ABSOLUTE
    cdrcmple.s                               0x00000000   Number         0  cdrcmple.o ABSOLUTE
    cfcmple.s                                0x00000000   Number         0  cfcmple.o ABSOLUTE
    cfrcmple.s                               0x00000000   Number         0  cfrcmple.o ABSOLUTE
    dc.s                                     0x00000000   Number         0  dc.o ABSOLUTE
    handlers.s                               0x00000000   Number         0  handlers.o ABSOLUTE
    init.s                                   0x00000000   Number         0  init.o ABSOLUTE
    RESET                                    0x08000000   Section      304  startup_stm32f10x_hd.o(RESET)
    .ARM.Collect$$$$00000000                 0x08000130   Section        0  entry.o(.ARM.Collect$$$$00000000)
    .ARM.Collect$$$$00000001                 0x08000130   Section        4  entry2.o(.ARM.Collect$$$$00000001)
    .ARM.Collect$$$$00000004                 0x08000134   Section        4  entry5.o(.ARM.Collect$$$$00000004)
    .ARM.Collect$$$$00000008                 0x08000138   Section        0  entry7b.o(.ARM.Collect$$$$00000008)
    .ARM.Collect$$$$0000000A                 0x08000138   Section        0  entry8b.o(.ARM.Collect$$$$0000000A)
    .ARM.Collect$$$$0000000B                 0x08000138   Section        8  entry9a.o(.ARM.Collect$$$$0000000B)
    .ARM.Collect$$$$0000000E                 0x08000140   Section        4  entry12b.o(.ARM.Collect$$$$0000000E)
    .ARM.Collect$$$$0000000F                 0x08000144   Section        0  entry10a.o(.ARM.Collect$$$$0000000F)
    .ARM.Collect$$$$00000011                 0x08000144   Section        0  entry11a.o(.ARM.Collect$$$$00000011)
    .ARM.Collect$$$$00002712                 0x08000144   Section        4  entry2.o(.ARM.Collect$$$$00002712)
    __lit__00000000                          0x08000144   Data           4  entry2.o(.ARM.Collect$$$$00002712)
    .text                                    0x08000148   Section       36  startup_stm32f10x_hd.o(.text)
    .text                                    0x0800016c   Section        0  fmul.o(.text)
    .text                                    0x080001d0   Section        0  dmul.o(.text)
    .text                                    0x080002b4   Section        0  ddiv.o(.text)
    .text                                    0x08000392   Section        0  fflti.o(.text)
    .text                                    0x080003a4   Section        0  ffltui.o(.text)
    .text                                    0x080003ae   Section        0  dflti.o(.text)
    .text                                    0x080003d0   Section        0  ffixi.o(.text)
    .text                                    0x08000402   Section        0  dfixi.o(.text)
    .text                                    0x08000440   Section        0  dfixui.o(.text)
    .text                                    0x08000472   Section        0  f2d.o(.text)
    .text                                    0x08000498   Section       48  cdcmple.o(.text)
    .text                                    0x080004c8   Section        0  d2f.o(.text)
    .text                                    0x08000500   Section       20  cfcmple.o(.text)
    .text                                    0x08000514   Section       20  cfrcmple.o(.text)
    .text                                    0x08000528   Section        0  llushr.o(.text)
    .text                                    0x08000548   Section        0  fepilogue.o(.text)
    .text                                    0x08000548   Section        0  iusefp.o(.text)
    .text                                    0x080005b6   Section        0  depilogue.o(.text)
    .text                                    0x08000670   Section       36  init.o(.text)
    .text                                    0x08000694   Section        0  llshl.o(.text)
    .text                                    0x080006b2   Section        0  __dczerorl2.o(.text)
    i.ADC_Cmd                                0x08000708   Section        0  stm32f10x_adc.o(i.ADC_Cmd)
    i.ADC_DeInit                             0x08000720   Section        0  stm32f10x_adc.o(i.ADC_DeInit)
    i.ADC_GetCalibrationStatus               0x0800077c   Section        0  stm32f10x_adc.o(i.ADC_GetCalibrationStatus)
    i.ADC_GetConversionValue                 0x08000790   Section        0  stm32f10x_adc.o(i.ADC_GetConversionValue)
    i.ADC_GetFlagStatus                      0x08000798   Section        0  stm32f10x_adc.o(i.ADC_GetFlagStatus)
    i.ADC_GetResetCalibrationStatus          0x080007aa   Section        0  stm32f10x_adc.o(i.ADC_GetResetCalibrationStatus)
    i.ADC_Init                               0x080007c0   Section        0  stm32f10x_adc.o(i.ADC_Init)
    i.ADC_RegularChannelConfig               0x08000810   Section        0  stm32f10x_adc.o(i.ADC_RegularChannelConfig)
    i.ADC_ResetCalibration                   0x080008c8   Section        0  stm32f10x_adc.o(i.ADC_ResetCalibration)
    i.ADC_SoftwareStartConvCmd               0x080008d2   Section        0  stm32f10x_adc.o(i.ADC_SoftwareStartConvCmd)
    i.ADC_StartCalibration                   0x080008e8   Section        0  stm32f10x_adc.o(i.ADC_StartCalibration)
    i.Acc_Send_Data                          0x080008f4   Section        0  jy901.o(i.Acc_Send_Data)
    i.Adc_Get_Average                        0x080009a4   Section        0  adc.o(i.Adc_Get_Average)
    i.Adc_Get_Battery_Volotage               0x080009cc   Section        0  adc.o(i.Adc_Get_Battery_Volotage)
    i.Adc_Get_Measure_Volotage               0x080009e8   Section        0  adc.o(i.Adc_Get_Measure_Volotage)
    i.Adc_Init                               0x08000a0c   Section        0  adc.o(i.Adc_Init)
    i.Angle_Send_Data                        0x08000a98   Section        0  jy901.o(i.Angle_Send_Data)
    i.BUZZER_OFF                             0x08000b48   Section        0  dio.o(i.BUZZER_OFF)
    i.BUZZER_ON                              0x08000b5c   Section        0  dio.o(i.BUZZER_ON)
    i.Bat_Is_Low_Power                       0x08000b70   Section        0  adc.o(i.Bat_Is_Low_Power)
    i.Bat_Update_Power_State                 0x08000b84   Section        0  adc.o(i.Bat_Update_Power_State)
    i.Clear_CMD_Flag                         0x08000bf0   Section        0  protocol.o(i.Clear_CMD_Flag)
    i.CopeSerial3Data                        0x08000c20   Section        0  jy901.o(i.CopeSerial3Data)
    i.Delay_Ms                               0x08000d3c   Section        0  delay.o(i.Delay_Ms)
    i.Encoder_Get_Count_Now                  0x08000de4   Section        0  encoder.o(i.Encoder_Get_Count_Now)
    i.Encoder_Init                           0x08000e08   Section        0  encoder.o(i.Encoder_Init)
    i.Encoder_Init_TIM3                      0x08000e14   Section        0  encoder.o(i.Encoder_Init_TIM3)
    i.Encoder_Init_TIM4                      0x08000ed8   Section        0  encoder.o(i.Encoder_Init_TIM4)
    i.Encoder_Read_CNT                       0x08000f9c   Section        0  encoder.o(i.Encoder_Read_CNT)
    i.Encoder_Update_Count                   0x08000fe0   Section        0  encoder.o(i.Encoder_Update_Count)
    i.GPIO_Config                            0x08001020   Section        0  dio.o(i.GPIO_Config)
    i.GPIO_Init                              0x08001060   Section        0  stm32f10x_gpio.o(i.GPIO_Init)
    i.GPIO_ResetBits                         0x08001176   Section        0  stm32f10x_gpio.o(i.GPIO_ResetBits)
    i.GPIO_SetBits                           0x0800117a   Section        0  stm32f10x_gpio.o(i.GPIO_SetBits)
    i.Get_Adc                                0x08001180   Section        0  adc.o(i.Get_Adc)
    i.Get_CMD_Length                         0x080011b4   Section        0  protocol.o(i.Get_CMD_Length)
    i.Get_Motor_Speed                        0x080011c0   Section        0  app_motion_control.o(i.Get_Motor_Speed)
    i.Get_RxBuffer                           0x080012a0   Section        0  protocol.o(i.Get_RxBuffer)
    i.Gyro_Send_Data                         0x080012a8   Section        0  jy901.o(i.Gyro_Send_Data)
    i.Is_Recv_New_Cmd                        0x08001358   Section        0  protocol.o(i.Is_Recv_New_Cmd)
    i.LED_OFF                                0x08001364   Section        0  dio.o(i.LED_OFF)
    i.LED_ON                                 0x08001378   Section        0  dio.o(i.LED_ON)
    i.Left_Pid_Update_Value                  0x0800138c   Section        0  pid.o(i.Left_Pid_Update_Value)
    i.MOTOR_GPIO_Init                        0x08001424   Section        0  motor.o(i.MOTOR_GPIO_Init)
    i.Motion_Control_10ms                    0x08001450   Section        0  app_motion_control.o(i.Motion_Control_10ms)
    i.Motion_Send_Data                       0x08001500   Section        0  app_motion_control.o(i.Motion_Send_Data)
    i.Motion_Set_PWM                         0x08001628   Section        0  app_motion_control.o(i.Motion_Set_PWM)
    i.Motion_Test_SpeedSet                   0x08001640   Section        0  app_motion_control.o(i.Motion_Test_SpeedSet)
    i.Motor_Close_Brake                      0x080016d0   Section        0  motor.o(i.Motor_Close_Brake)
    i.Motor_PWM_Init                         0x080016e8   Section        0  motor.o(i.Motor_PWM_Init)
    i.Motor_Set_Pwm                          0x080017dc   Section        0  motor.o(i.Motor_Set_Pwm)
    i.Motor_m1_pwm                           0x08001818   Section        0  motor.o(i.Motor_m1_pwm)
    i.Motor_m2_pwm                           0x08001840   Section        0  motor.o(i.Motor_m2_pwm)
    i.NVIC_Init                              0x08001870   Section        0  misc.o(i.NVIC_Init)
    i.NVIC_PriorityGroupConfig               0x080018e0   Section        0  misc.o(i.NVIC_PriorityGroupConfig)
    i.PID_Init                               0x080018f4   Section        0  pid.o(i.PID_Init)
    i.PID_Reset_Yaw                          0x08001954   Section        0  pid.o(i.PID_Reset_Yaw)
    i.PID_common                             0x08001968   Section        0  pid.o(i.PID_common)
    i.Parse_Cmd_Data                         0x080019b8   Section        0  protocol.o(i.Parse_Cmd_Data)
    i.Pid_Ctrl                               0x08001bb8   Section        0  pid.o(i.Pid_Ctrl)
    i.Pid_Which                              0x08001c18   Section        0  pid.o(i.Pid_Which)
    i.RCC_ADCCLKConfig                       0x08001c8c   Section        0  stm32f10x_rcc.o(i.RCC_ADCCLKConfig)
    i.RCC_APB1PeriphClockCmd                 0x08001ca4   Section        0  stm32f10x_rcc.o(i.RCC_APB1PeriphClockCmd)
    i.RCC_APB1PeriphResetCmd                 0x08001cc4   Section        0  stm32f10x_rcc.o(i.RCC_APB1PeriphResetCmd)
    i.RCC_APB2PeriphClockCmd                 0x08001ce4   Section        0  stm32f10x_rcc.o(i.RCC_APB2PeriphClockCmd)
    i.RCC_APB2PeriphResetCmd                 0x08001d04   Section        0  stm32f10x_rcc.o(i.RCC_APB2PeriphResetCmd)
    i.RCC_GetClocksFreq                      0x08001d24   Section        0  stm32f10x_rcc.o(i.RCC_GetClocksFreq)
    i.Right_Pid_Update_Value                 0x08001df8   Section        0  pid.o(i.Right_Pid_Update_Value)
    i.Sensor_Send_Data                       0x08001e90   Section        0  adc.o(i.Sensor_Send_Data)
    i.SetSysClock                            0x08001f54   Section        0  system_stm32f10x.o(i.SetSysClock)
    SetSysClock                              0x08001f55   Thumb Code     8  system_stm32f10x.o(i.SetSysClock)
    i.SetSysClockTo72                        0x08001f5c   Section        0  system_stm32f10x.o(i.SetSysClockTo72)
    SetSysClockTo72                          0x08001f5d   Thumb Code   214  system_stm32f10x.o(i.SetSysClockTo72)
    i.SysTick_Handler                        0x0800203c   Section        0  delay.o(i.SysTick_Handler)
    i.SysTick_init                           0x0800205c   Section        0  delay.o(i.SysTick_init)
    i.SystemInit                             0x080020d8   Section        0  system_stm32f10x.o(i.SystemInit)
    i.TI1_Config                             0x08002138   Section        0  stm32f10x_tim.o(i.TI1_Config)
    TI1_Config                               0x08002139   Thumb Code   108  stm32f10x_tim.o(i.TI1_Config)
    i.TI2_Config                             0x080021b8   Section        0  stm32f10x_tim.o(i.TI2_Config)
    TI2_Config                               0x080021b9   Thumb Code   130  stm32f10x_tim.o(i.TI2_Config)
    i.TI3_Config                             0x08002250   Section        0  stm32f10x_tim.o(i.TI3_Config)
    TI3_Config                               0x08002251   Thumb Code   122  stm32f10x_tim.o(i.TI3_Config)
    i.TI4_Config                             0x080022e0   Section        0  stm32f10x_tim.o(i.TI4_Config)
    TI4_Config                               0x080022e1   Thumb Code   130  stm32f10x_tim.o(i.TI4_Config)
    i.TIM1_Init                              0x08002378   Section        0  timer.o(i.TIM1_Init)
    i.TIM1_UP_IRQHandler                     0x080023e8   Section        0  app_motion_control.o(i.TIM1_UP_IRQHandler)
    i.TIM_ARRPreloadConfig                   0x08002414   Section        0  stm32f10x_tim.o(i.TIM_ARRPreloadConfig)
    i.TIM_ClearFlag                          0x0800242c   Section        0  stm32f10x_tim.o(i.TIM_ClearFlag)
    i.TIM_ClearITPendingBit                  0x08002432   Section        0  stm32f10x_tim.o(i.TIM_ClearITPendingBit)
    i.TIM_Cmd                                0x08002438   Section        0  stm32f10x_tim.o(i.TIM_Cmd)
    i.TIM_DeInit                             0x08002450   Section        0  stm32f10x_tim.o(i.TIM_DeInit)
    i.TIM_EncoderInterfaceConfig             0x08002638   Section        0  stm32f10x_tim.o(i.TIM_EncoderInterfaceConfig)
    i.TIM_GetITStatus                        0x0800267a   Section        0  stm32f10x_tim.o(i.TIM_GetITStatus)
    i.TIM_ICInit                             0x0800269c   Section        0  stm32f10x_tim.o(i.TIM_ICInit)
    i.TIM_ICStructInit                       0x08002748   Section        0  stm32f10x_tim.o(i.TIM_ICStructInit)
    i.TIM_ITConfig                           0x0800275a   Section        0  stm32f10x_tim.o(i.TIM_ITConfig)
    i.TIM_OC1Init                            0x0800276c   Section        0  stm32f10x_tim.o(i.TIM_OC1Init)
    i.TIM_OC1PreloadConfig                   0x08002804   Section        0  stm32f10x_tim.o(i.TIM_OC1PreloadConfig)
    i.TIM_OC2Init                            0x08002818   Section        0  stm32f10x_tim.o(i.TIM_OC2Init)
    i.TIM_OC2PreloadConfig                   0x080028bc   Section        0  stm32f10x_tim.o(i.TIM_OC2PreloadConfig)
    i.TIM_OC3Init                            0x080028d8   Section        0  stm32f10x_tim.o(i.TIM_OC3Init)
    i.TIM_OC3PreloadConfig                   0x08002978   Section        0  stm32f10x_tim.o(i.TIM_OC3PreloadConfig)
    i.TIM_OC4Init                            0x0800298c   Section        0  stm32f10x_tim.o(i.TIM_OC4Init)
    i.TIM_OC4PreloadConfig                   0x08002a08   Section        0  stm32f10x_tim.o(i.TIM_OC4PreloadConfig)
    i.TIM_OCStructInit                       0x08002a22   Section        0  stm32f10x_tim.o(i.TIM_OCStructInit)
    i.TIM_SetCounter                         0x08002a36   Section        0  stm32f10x_tim.o(i.TIM_SetCounter)
    i.TIM_SetIC1Prescaler                    0x08002a3a   Section        0  stm32f10x_tim.o(i.TIM_SetIC1Prescaler)
    i.TIM_SetIC2Prescaler                    0x08002a4c   Section        0  stm32f10x_tim.o(i.TIM_SetIC2Prescaler)
    i.TIM_SetIC3Prescaler                    0x08002a66   Section        0  stm32f10x_tim.o(i.TIM_SetIC3Prescaler)
    i.TIM_SetIC4Prescaler                    0x08002a78   Section        0  stm32f10x_tim.o(i.TIM_SetIC4Prescaler)
    i.TIM_TimeBaseInit                       0x08002a94   Section        0  stm32f10x_tim.o(i.TIM_TimeBaseInit)
    i.TIM_TimeBaseStructInit                 0x08002b38   Section        0  stm32f10x_tim.o(i.TIM_TimeBaseStructInit)
    i.Timer_Count_Auto_Reduce                0x08002b4c   Section        0  timer.o(i.Timer_Count_Auto_Reduce)
    i.Timer_Get_Count                        0x08002b60   Section        0  timer.o(i.Timer_Get_Count)
    i.Timer_Set_Count                        0x08002b78   Section        0  timer.o(i.Timer_Set_Count)
    i.UART1_Init                             0x08002b88   Section        0  uart1.o(i.UART1_Init)
    i.UART1_Put_Char                         0x08002c48   Section        0  uart1.o(i.UART1_Put_Char)
    i.UART3_Init                             0x08002c78   Section        0  uart3.o(i.UART3_Init)
    i.UART3_Put_Char                         0x08002d3c   Section        0  uart3.o(i.UART3_Put_Char)
    i.USART1_IRQHandler                      0x08002d6c   Section        0  uart1.o(i.USART1_IRQHandler)
    i.USART3_IRQHandler                      0x08002de0   Section        0  uart3.o(i.USART3_IRQHandler)
    i.USART_ClearFlag                        0x08002e68   Section        0  stm32f10x_usart.o(i.USART_ClearFlag)
    i.USART_ClearITPendingBit                0x08002e7a   Section        0  stm32f10x_usart.o(i.USART_ClearITPendingBit)
    i.USART_Cmd                              0x08002e98   Section        0  stm32f10x_usart.o(i.USART_Cmd)
    i.USART_GetITStatus                      0x08002eb0   Section        0  stm32f10x_usart.o(i.USART_GetITStatus)
    i.USART_ITConfig                         0x08002f04   Section        0  stm32f10x_usart.o(i.USART_ITConfig)
    i.USART_Init                             0x08002f50   Section        0  stm32f10x_usart.o(i.USART_Init)
    i.USART_ReceiveData                      0x08003028   Section        0  stm32f10x_usart.o(i.USART_ReceiveData)
    i.USART_SendData                         0x08003032   Section        0  stm32f10x_usart.o(i.USART_SendData)
    i.Upper_Data_Receive                     0x0800303c   Section        0  protocol.o(i.Upper_Data_Receive)
    i.__scatterload_copy                     0x08003130   Section       14  handlers.o(i.__scatterload_copy)
    i.__scatterload_null                     0x0800313e   Section        2  handlers.o(i.__scatterload_null)
    i.__scatterload_zeroinit                 0x08003140   Section       14  handlers.o(i.__scatterload_zeroinit)
    i.jy901_calibration                      0x08003150   Section        0  jy901.o(i.jy901_calibration)
    i.jy901_init                             0x08003194   Section        0  jy901.o(i.jy901_init)
    i.main                                   0x080031c8   Section        0  main.o(i.main)
    i.myabs                                  0x0800328c   Section        0  motor.o(i.myabs)
    myabs                                    0x0800328d   Thumb Code    14  motor.o(i.myabs)
    i.reset_Uk                               0x0800329a   Section        0  pid.o(i.reset_Uk)
    i.sendcmd                                0x080032a4   Section        0  jy901.o(i.sendcmd)
    .data                                    0x20000000   Section      104  pid.o(.data)
    Bias                                     0x20000034   Data           4  pid.o(.data)
    Pwm                                      0x20000038   Data           4  pid.o(.data)
    Last_bias                                0x2000003c   Data           4  pid.o(.data)
    Bias                                     0x20000040   Data           4  pid.o(.data)
    Pwm                                      0x20000044   Data           4  pid.o(.data)
    Last_bias                                0x20000048   Data           4  pid.o(.data)
    average                                  0x2000004c   Data           4  pid.o(.data)
    count                                    0x20000050   Data           4  pid.o(.data)
    Bias                                     0x20000054   Data           4  pid.o(.data)
    Pwm                                      0x20000058   Data           4  pid.o(.data)
    Last_bias                                0x2000005c   Data           4  pid.o(.data)
    average                                  0x20000060   Data           4  pid.o(.data)
    count                                    0x20000064   Data           4  pid.o(.data)
    .data                                    0x20000068   Section       64  app_motion_control.o(.data)
    lSpd_mm_s                                0x20000098   Data           8  app_motion_control.o(.data)
    rSpd_mm_s                                0x200000a0   Data           8  app_motion_control.o(.data)
    .data                                    0x200000a8   Section        4  protocol.o(.data)
    .data                                    0x200000ac   Section      106  jy901.o(.data)
    ucRxCnt                                  0x20000115   Data           1  jy901.o(.data)
    .data                                    0x20000116   Section        6  delay.o(.data)
    fac_us                                   0x20000116   Data           1  delay.o(.data)
    fac_ms                                   0x20000118   Data           2  delay.o(.data)
    .data                                    0x2000011c   Section        2  uart1.o(.data)
    TxCounter                                0x2000011c   Data           1  uart1.o(.data)
    count                                    0x2000011d   Data           1  uart1.o(.data)
    .data                                    0x2000011e   Section        2  uart3.o(.data)
    TxCounter                                0x2000011e   Data           1  uart3.o(.data)
    count                                    0x2000011f   Data           1  uart3.o(.data)
    .data                                    0x20000120   Section       12  adc.o(.data)
    .data                                    0x2000012c   Section        8  encoder.o(.data)
    .data                                    0x20000134   Section        8  timer.o(.data)
    .data                                    0x2000013c   Section       20  stm32f10x_rcc.o(.data)
    APBAHBPrescTable                         0x2000013c   Data          16  stm32f10x_rcc.o(.data)
    ADCPrescTable                            0x2000014c   Data           4  stm32f10x_rcc.o(.data)
    .bss                                     0x20000150   Section       84  pid.o(.bss)
    .bss                                     0x200001a4   Section       15  protocol.o(.bss)
    .bss                                     0x200001b3   Section      250  jy901.o(.bss)
    ucRxBuffer                               0x200001b3   Data         250  jy901.o(.bss)
    .bss                                     0x200002ad   Section      256  uart1.o(.bss)
    TxBuffer                                 0x200002ad   Data         256  uart1.o(.bss)
    .bss                                     0x200003ad   Section      256  uart3.o(.bss)
    TxBuffer                                 0x200003ad   Data         256  uart3.o(.bss)
    STACK                                    0x200004b0   Section     1024  startup_stm32f10x_hd.o(STACK)

    Global Symbols

    Symbol Name                              Value     Ov Type        Size  Object(Section)

    BuildAttributes$$THM_ISAv4$P$D$K$B$S$PE$A:L22UL41UL21$X:L11$S22US41US21$IEEE1$IW$USESV6$~STKCKD$USESV7$~SHL$OTIME$ROPI$EBA8$MICROLIB$REQ8$PRES8$EABIv2 0x00000000   Number         0  anon$$obj.o ABSOLUTE
    __ARM_use_no_argv                        0x00000000   Number         0  main.o ABSOLUTE
    __arm_fini_                               - Undefined Weak Reference
    __cpp_initialize__aeabi_                  - Undefined Weak Reference
    __cxa_finalize                            - Undefined Weak Reference
    _clock_init                               - Undefined Weak Reference
    _microlib_exit                            - Undefined Weak Reference
    __Vectors_Size                           0x00000130   Number         0  startup_stm32f10x_hd.o ABSOLUTE
    __Vectors                                0x08000000   Data           4  startup_stm32f10x_hd.o(RESET)
    __Vectors_End                            0x08000130   Data           0  startup_stm32f10x_hd.o(RESET)
    __main                                   0x08000131   Thumb Code     0  entry.o(.ARM.Collect$$$$00000000)
    _main_stk                                0x08000131   Thumb Code     0  entry2.o(.ARM.Collect$$$$00000001)
    _main_scatterload                        0x08000135   Thumb Code     0  entry5.o(.ARM.Collect$$$$00000004)
    __main_after_scatterload                 0x08000139   Thumb Code     0  entry5.o(.ARM.Collect$$$$00000004)
    _main_clock                              0x08000139   Thumb Code     0  entry7b.o(.ARM.Collect$$$$00000008)
    _main_cpp_init                           0x08000139   Thumb Code     0  entry8b.o(.ARM.Collect$$$$0000000A)
    _main_init                               0x08000139   Thumb Code     0  entry9a.o(.ARM.Collect$$$$0000000B)
    __rt_lib_shutdown_fini                   0x08000141   Thumb Code     0  entry12b.o(.ARM.Collect$$$$0000000E)
    __rt_final_cpp                           0x08000145   Thumb Code     0  entry10a.o(.ARM.Collect$$$$0000000F)
    __rt_final_exit                          0x08000145   Thumb Code     0  entry11a.o(.ARM.Collect$$$$00000011)
    Reset_Handler                            0x08000149   Thumb Code     8  startup_stm32f10x_hd.o(.text)
    NMI_Handler                              0x08000151   Thumb Code     2  startup_stm32f10x_hd.o(.text)
    HardFault_Handler                        0x08000153   Thumb Code     2  startup_stm32f10x_hd.o(.text)
    MemManage_Handler                        0x08000155   Thumb Code     2  startup_stm32f10x_hd.o(.text)
    BusFault_Handler                         0x08000157   Thumb Code     2  startup_stm32f10x_hd.o(.text)
    UsageFault_Handler                       0x08000159   Thumb Code     2  startup_stm32f10x_hd.o(.text)
    SVC_Handler                              0x0800015b   Thumb Code     2  startup_stm32f10x_hd.o(.text)
    DebugMon_Handler                         0x0800015d   Thumb Code     2  startup_stm32f10x_hd.o(.text)
    PendSV_Handler                           0x0800015f   Thumb Code     2  startup_stm32f10x_hd.o(.text)
    ADC1_2_IRQHandler                        0x08000163   Thumb Code     0  startup_stm32f10x_hd.o(.text)
    ADC3_IRQHandler                          0x08000163   Thumb Code     0  startup_stm32f10x_hd.o(.text)
    CAN1_RX1_IRQHandler                      0x08000163   Thumb Code     0  startup_stm32f10x_hd.o(.text)
    CAN1_SCE_IRQHandler                      0x08000163   Thumb Code     0  startup_stm32f10x_hd.o(.text)
    DMA1_Channel1_IRQHandler                 0x08000163   Thumb Code     0  startup_stm32f10x_hd.o(.text)
    DMA1_Channel2_IRQHandler                 0x08000163   Thumb Code     0  startup_stm32f10x_hd.o(.text)
    DMA1_Channel3_IRQHandler                 0x08000163   Thumb Code     0  startup_stm32f10x_hd.o(.text)
    DMA1_Channel4_IRQHandler                 0x08000163   Thumb Code     0  startup_stm32f10x_hd.o(.text)
    DMA1_Channel5_IRQHandler                 0x08000163   Thumb Code     0  startup_stm32f10x_hd.o(.text)
    DMA1_Channel6_IRQHandler                 0x08000163   Thumb Code     0  startup_stm32f10x_hd.o(.text)
    DMA1_Channel7_IRQHandler                 0x08000163   Thumb Code     0  startup_stm32f10x_hd.o(.text)
    DMA2_Channel1_IRQHandler                 0x08000163   Thumb Code     0  startup_stm32f10x_hd.o(.text)
    DMA2_Channel2_IRQHandler                 0x08000163   Thumb Code     0  startup_stm32f10x_hd.o(.text)
    DMA2_Channel3_IRQHandler                 0x08000163   Thumb Code     0  startup_stm32f10x_hd.o(.text)
    DMA2_Channel4_5_IRQHandler               0x08000163   Thumb Code     0  startup_stm32f10x_hd.o(.text)
    EXTI0_IRQHandler                         0x08000163   Thumb Code     0  startup_stm32f10x_hd.o(.text)
    EXTI15_10_IRQHandler                     0x08000163   Thumb Code     0  startup_stm32f10x_hd.o(.text)
    EXTI1_IRQHandler                         0x08000163   Thumb Code     0  startup_stm32f10x_hd.o(.text)
    EXTI2_IRQHandler                         0x08000163   Thumb Code     0  startup_stm32f10x_hd.o(.text)
    EXTI3_IRQHandler                         0x08000163   Thumb Code     0  startup_stm32f10x_hd.o(.text)
    EXTI4_IRQHandler                         0x08000163   Thumb Code     0  startup_stm32f10x_hd.o(.text)
    EXTI9_5_IRQHandler                       0x08000163   Thumb Code     0  startup_stm32f10x_hd.o(.text)
    FLASH_IRQHandler                         0x08000163   Thumb Code     0  startup_stm32f10x_hd.o(.text)
    FSMC_IRQHandler                          0x08000163   Thumb Code     0  startup_stm32f10x_hd.o(.text)
    I2C1_ER_IRQHandler                       0x08000163   Thumb Code     0  startup_stm32f10x_hd.o(.text)
    I2C1_EV_IRQHandler                       0x08000163   Thumb Code     0  startup_stm32f10x_hd.o(.text)
    I2C2_ER_IRQHandler                       0x08000163   Thumb Code     0  startup_stm32f10x_hd.o(.text)
    I2C2_EV_IRQHandler                       0x08000163   Thumb Code     0  startup_stm32f10x_hd.o(.text)
    PVD_IRQHandler                           0x08000163   Thumb Code     0  startup_stm32f10x_hd.o(.text)
    RCC_IRQHandler                           0x08000163   Thumb Code     0  startup_stm32f10x_hd.o(.text)
    RTCAlarm_IRQHandler                      0x08000163   Thumb Code     0  startup_stm32f10x_hd.o(.text)
    RTC_IRQHandler                           0x08000163   Thumb Code     0  startup_stm32f10x_hd.o(.text)
    SDIO_IRQHandler                          0x08000163   Thumb Code     0  startup_stm32f10x_hd.o(.text)
    SPI1_IRQHandler                          0x08000163   Thumb Code     0  startup_stm32f10x_hd.o(.text)
    SPI2_IRQHandler                          0x08000163   Thumb Code     0  startup_stm32f10x_hd.o(.text)
    SPI3_IRQHandler                          0x08000163   Thumb Code     0  startup_stm32f10x_hd.o(.text)
    TAMPER_IRQHandler                        0x08000163   Thumb Code     0  startup_stm32f10x_hd.o(.text)
    TIM1_BRK_IRQHandler                      0x08000163   Thumb Code     0  startup_stm32f10x_hd.o(.text)
    TIM1_CC_IRQHandler                       0x08000163   Thumb Code     0  startup_stm32f10x_hd.o(.text)
    TIM1_TRG_COM_IRQHandler                  0x08000163   Thumb Code     0  startup_stm32f10x_hd.o(.text)
    TIM2_IRQHandler                          0x08000163   Thumb Code     0  startup_stm32f10x_hd.o(.text)
    TIM3_IRQHandler                          0x08000163   Thumb Code     0  startup_stm32f10x_hd.o(.text)
    TIM4_IRQHandler                          0x08000163   Thumb Code     0  startup_stm32f10x_hd.o(.text)
    TIM5_IRQHandler                          0x08000163   Thumb Code     0  startup_stm32f10x_hd.o(.text)
    TIM6_IRQHandler                          0x08000163   Thumb Code     0  startup_stm32f10x_hd.o(.text)
    TIM7_IRQHandler                          0x08000163   Thumb Code     0  startup_stm32f10x_hd.o(.text)
    TIM8_BRK_IRQHandler                      0x08000163   Thumb Code     0  startup_stm32f10x_hd.o(.text)
    TIM8_CC_IRQHandler                       0x08000163   Thumb Code     0  startup_stm32f10x_hd.o(.text)
    TIM8_TRG_COM_IRQHandler                  0x08000163   Thumb Code     0  startup_stm32f10x_hd.o(.text)
    TIM8_UP_IRQHandler                       0x08000163   Thumb Code     0  startup_stm32f10x_hd.o(.text)
    UART4_IRQHandler                         0x08000163   Thumb Code     0  startup_stm32f10x_hd.o(.text)
    UART5_IRQHandler                         0x08000163   Thumb Code     0  startup_stm32f10x_hd.o(.text)
    USART2_IRQHandler                        0x08000163   Thumb Code     0  startup_stm32f10x_hd.o(.text)
    USBWakeUp_IRQHandler                     0x08000163   Thumb Code     0  startup_stm32f10x_hd.o(.text)
    USB_HP_CAN1_TX_IRQHandler                0x08000163   Thumb Code     0  startup_stm32f10x_hd.o(.text)
    USB_LP_CAN1_RX0_IRQHandler               0x08000163   Thumb Code     0  startup_stm32f10x_hd.o(.text)
    WWDG_IRQHandler                          0x08000163   Thumb Code     0  startup_stm32f10x_hd.o(.text)
    __aeabi_fmul                             0x0800016d   Thumb Code   100  fmul.o(.text)
    __aeabi_dmul                             0x080001d1   Thumb Code   228  dmul.o(.text)
    __aeabi_ddiv                             0x080002b5   Thumb Code   222  ddiv.o(.text)
    __aeabi_i2f                              0x08000393   Thumb Code    18  fflti.o(.text)
    __aeabi_ui2f                             0x080003a5   Thumb Code    10  ffltui.o(.text)
    __aeabi_i2d                              0x080003af   Thumb Code    34  dflti.o(.text)
    __aeabi_f2iz                             0x080003d1   Thumb Code    50  ffixi.o(.text)
    __aeabi_d2iz                             0x08000403   Thumb Code    62  dfixi.o(.text)
    __aeabi_d2uiz                            0x08000441   Thumb Code    50  dfixui.o(.text)
    __aeabi_f2d                              0x08000473   Thumb Code    38  f2d.o(.text)
    __aeabi_cdcmpeq                          0x08000499   Thumb Code     0  cdcmple.o(.text)
    __aeabi_cdcmple                          0x08000499   Thumb Code    48  cdcmple.o(.text)
    __aeabi_d2f                              0x080004c9   Thumb Code    56  d2f.o(.text)
    __aeabi_cfcmpeq                          0x08000501   Thumb Code     0  cfcmple.o(.text)
    __aeabi_cfcmple                          0x08000501   Thumb Code    20  cfcmple.o(.text)
    __aeabi_cfrcmple                         0x08000515   Thumb Code    20  cfrcmple.o(.text)
    __aeabi_llsr                             0x08000529   Thumb Code    32  llushr.o(.text)
    _ll_ushift_r                             0x08000529   Thumb Code     0  llushr.o(.text)
    __I$use$fp                               0x08000549   Thumb Code     0  iusefp.o(.text)
    _float_round                             0x08000549   Thumb Code    18  fepilogue.o(.text)
    _float_epilogue                          0x0800055b   Thumb Code    92  fepilogue.o(.text)
    _double_round                            0x080005b7   Thumb Code    30  depilogue.o(.text)
    _double_epilogue                         0x080005d5   Thumb Code   156  depilogue.o(.text)
    __scatterload                            0x08000671   Thumb Code    28  init.o(.text)
    __scatterload_rt2                        0x08000671   Thumb Code     0  init.o(.text)
    __aeabi_llsl                             0x08000695   Thumb Code    30  llshl.o(.text)
    _ll_shift_l                              0x08000695   Thumb Code     0  llshl.o(.text)
    __decompress                             0x080006b3   Thumb Code     0  __dczerorl2.o(.text)
    __decompress1                            0x080006b3   Thumb Code    86  __dczerorl2.o(.text)
    ADC_Cmd                                  0x08000709   Thumb Code    22  stm32f10x_adc.o(i.ADC_Cmd)
    ADC_DeInit                               0x08000721   Thumb Code    78  stm32f10x_adc.o(i.ADC_DeInit)
    ADC_GetCalibrationStatus                 0x0800077d   Thumb Code    20  stm32f10x_adc.o(i.ADC_GetCalibrationStatus)
    ADC_GetConversionValue                   0x08000791   Thumb Code     8  stm32f10x_adc.o(i.ADC_GetConversionValue)
    ADC_GetFlagStatus                        0x08000799   Thumb Code    18  stm32f10x_adc.o(i.ADC_GetFlagStatus)
    ADC_GetResetCalibrationStatus            0x080007ab   Thumb Code    20  stm32f10x_adc.o(i.ADC_GetResetCalibrationStatus)
    ADC_Init                                 0x080007c1   Thumb Code    70  stm32f10x_adc.o(i.ADC_Init)
    ADC_RegularChannelConfig                 0x08000811   Thumb Code   184  stm32f10x_adc.o(i.ADC_RegularChannelConfig)
    ADC_ResetCalibration                     0x080008c9   Thumb Code    10  stm32f10x_adc.o(i.ADC_ResetCalibration)
    ADC_SoftwareStartConvCmd                 0x080008d3   Thumb Code    22  stm32f10x_adc.o(i.ADC_SoftwareStartConvCmd)
    ADC_StartCalibration                     0x080008e9   Thumb Code    10  stm32f10x_adc.o(i.ADC_StartCalibration)
    Acc_Send_Data                            0x080008f5   Thumb Code   172  jy901.o(i.Acc_Send_Data)
    Adc_Get_Average                          0x080009a5   Thumb Code    40  adc.o(i.Adc_Get_Average)
    Adc_Get_Battery_Volotage                 0x080009cd   Thumb Code    22  adc.o(i.Adc_Get_Battery_Volotage)
    Adc_Get_Measure_Volotage                 0x080009e9   Thumb Code    32  adc.o(i.Adc_Get_Measure_Volotage)
    Adc_Init                                 0x08000a0d   Thumb Code   132  adc.o(i.Adc_Init)
    Angle_Send_Data                          0x08000a99   Thumb Code   172  jy901.o(i.Angle_Send_Data)
    BUZZER_OFF                               0x08000b49   Thumb Code    14  dio.o(i.BUZZER_OFF)
    BUZZER_ON                                0x08000b5d   Thumb Code    14  dio.o(i.BUZZER_ON)
    Bat_Is_Low_Power                         0x08000b71   Thumb Code    14  adc.o(i.Bat_Is_Low_Power)
    Bat_Update_Power_State                   0x08000b85   Thumb Code    86  adc.o(i.Bat_Update_Power_State)
    Clear_CMD_Flag                           0x08000bf1   Thumb Code    34  protocol.o(i.Clear_CMD_Flag)
    CopeSerial3Data                          0x08000c21   Thumb Code   236  jy901.o(i.CopeSerial3Data)
    Delay_Ms                                 0x08000d3d   Thumb Code   158  delay.o(i.Delay_Ms)
    Encoder_Get_Count_Now                    0x08000de5   Thumb Code    26  encoder.o(i.Encoder_Get_Count_Now)
    Encoder_Init                             0x08000e09   Thumb Code    12  encoder.o(i.Encoder_Init)
    Encoder_Init_TIM3                        0x08000e15   Thumb Code   186  encoder.o(i.Encoder_Init_TIM3)
    Encoder_Init_TIM4                        0x08000ed9   Thumb Code   186  encoder.o(i.Encoder_Init_TIM4)
    Encoder_Read_CNT                         0x08000f9d   Thumb Code    60  encoder.o(i.Encoder_Read_CNT)
    Encoder_Update_Count                     0x08000fe1   Thumb Code    56  encoder.o(i.Encoder_Update_Count)
    GPIO_Config                              0x08001021   Thumb Code    56  dio.o(i.GPIO_Config)
    GPIO_Init                                0x08001061   Thumb Code   278  stm32f10x_gpio.o(i.GPIO_Init)
    GPIO_ResetBits                           0x08001177   Thumb Code     4  stm32f10x_gpio.o(i.GPIO_ResetBits)
    GPIO_SetBits                             0x0800117b   Thumb Code     4  stm32f10x_gpio.o(i.GPIO_SetBits)
    Get_Adc                                  0x08001181   Thumb Code    46  adc.o(i.Get_Adc)
    Get_CMD_Length                           0x080011b5   Thumb Code     6  protocol.o(i.Get_CMD_Length)
    Get_Motor_Speed                          0x080011c1   Thumb Code   182  app_motion_control.o(i.Get_Motor_Speed)
    Get_RxBuffer                             0x080012a1   Thumb Code     4  protocol.o(i.Get_RxBuffer)
    Gyro_Send_Data                           0x080012a9   Thumb Code   172  jy901.o(i.Gyro_Send_Data)
    Is_Recv_New_Cmd                          0x08001359   Thumb Code     6  protocol.o(i.Is_Recv_New_Cmd)
    LED_OFF                                  0x08001365   Thumb Code    14  dio.o(i.LED_OFF)
    LED_ON                                   0x08001379   Thumb Code    14  dio.o(i.LED_ON)
    Left_Pid_Update_Value                    0x0800138d   Thumb Code   132  pid.o(i.Left_Pid_Update_Value)
    MOTOR_GPIO_Init                          0x08001425   Thumb Code    38  motor.o(i.MOTOR_GPIO_Init)
    Motion_Control_10ms                      0x08001451   Thumb Code   134  app_motion_control.o(i.Motion_Control_10ms)
    Motion_Send_Data                         0x08001501   Thumb Code   286  app_motion_control.o(i.Motion_Send_Data)
    Motion_Set_PWM                           0x08001629   Thumb Code    24  app_motion_control.o(i.Motion_Set_PWM)
    Motion_Test_SpeedSet                     0x08001641   Thumb Code   130  app_motion_control.o(i.Motion_Test_SpeedSet)
    Motor_Close_Brake                        0x080016d1   Thumb Code    18  motor.o(i.Motor_Close_Brake)
    Motor_PWM_Init                           0x080016e9   Thumb Code   242  motor.o(i.Motor_PWM_Init)
    Motor_Set_Pwm                            0x080017dd   Thumb Code    56  motor.o(i.Motor_Set_Pwm)
    Motor_m1_pwm                             0x08001819   Thumb Code    38  motor.o(i.Motor_m1_pwm)
    Motor_m2_pwm                             0x08001841   Thumb Code    42  motor.o(i.Motor_m2_pwm)
    NVIC_Init                                0x08001871   Thumb Code   100  misc.o(i.NVIC_Init)
    NVIC_PriorityGroupConfig                 0x080018e1   Thumb Code    10  misc.o(i.NVIC_PriorityGroupConfig)
    PID_Init                                 0x080018f5   Thumb Code    88  pid.o(i.PID_Init)
    PID_Reset_Yaw                            0x08001955   Thumb Code    12  pid.o(i.PID_Reset_Yaw)
    PID_common                               0x08001969   Thumb Code    80  pid.o(i.PID_common)
    Parse_Cmd_Data                           0x080019b9   Thumb Code   508  protocol.o(i.Parse_Cmd_Data)
    Pid_Ctrl                                 0x08001bb9   Thumb Code    84  pid.o(i.Pid_Ctrl)
    Pid_Which                                0x08001c19   Thumb Code   112  pid.o(i.Pid_Which)
    RCC_ADCCLKConfig                         0x08001c8d   Thumb Code    18  stm32f10x_rcc.o(i.RCC_ADCCLKConfig)
    RCC_APB1PeriphClockCmd                   0x08001ca5   Thumb Code    26  stm32f10x_rcc.o(i.RCC_APB1PeriphClockCmd)
    RCC_APB1PeriphResetCmd                   0x08001cc5   Thumb Code    26  stm32f10x_rcc.o(i.RCC_APB1PeriphResetCmd)
    RCC_APB2PeriphClockCmd                   0x08001ce5   Thumb Code    26  stm32f10x_rcc.o(i.RCC_APB2PeriphClockCmd)
    RCC_APB2PeriphResetCmd                   0x08001d05   Thumb Code    26  stm32f10x_rcc.o(i.RCC_APB2PeriphResetCmd)
    RCC_GetClocksFreq                        0x08001d25   Thumb Code   192  stm32f10x_rcc.o(i.RCC_GetClocksFreq)
    Right_Pid_Update_Value                   0x08001df9   Thumb Code   132  pid.o(i.Right_Pid_Update_Value)
    Sensor_Send_Data                         0x08001e91   Thumb Code   190  adc.o(i.Sensor_Send_Data)
    SysTick_Handler                          0x0800203d   Thumb Code    24  delay.o(i.SysTick_Handler)
    SysTick_init                             0x0800205d   Thumb Code   114  delay.o(i.SysTick_init)
    SystemInit                               0x080020d9   Thumb Code    78  system_stm32f10x.o(i.SystemInit)
    TIM1_Init                                0x08002379   Thumb Code   106  timer.o(i.TIM1_Init)
    TIM1_UP_IRQHandler                       0x080023e9   Thumb Code    40  app_motion_control.o(i.TIM1_UP_IRQHandler)
    TIM_ARRPreloadConfig                     0x08002415   Thumb Code    24  stm32f10x_tim.o(i.TIM_ARRPreloadConfig)
    TIM_ClearFlag                            0x0800242d   Thumb Code     6  stm32f10x_tim.o(i.TIM_ClearFlag)
    TIM_ClearITPendingBit                    0x08002433   Thumb Code     6  stm32f10x_tim.o(i.TIM_ClearITPendingBit)
    TIM_Cmd                                  0x08002439   Thumb Code    24  stm32f10x_tim.o(i.TIM_Cmd)
    TIM_DeInit                               0x08002451   Thumb Code   424  stm32f10x_tim.o(i.TIM_DeInit)
    TIM_EncoderInterfaceConfig               0x08002639   Thumb Code    66  stm32f10x_tim.o(i.TIM_EncoderInterfaceConfig)
    TIM_GetITStatus                          0x0800267b   Thumb Code    34  stm32f10x_tim.o(i.TIM_GetITStatus)
    TIM_ICInit                               0x0800269d   Thumb Code   150  stm32f10x_tim.o(i.TIM_ICInit)
    TIM_ICStructInit                         0x08002749   Thumb Code    18  stm32f10x_tim.o(i.TIM_ICStructInit)
    TIM_ITConfig                             0x0800275b   Thumb Code    18  stm32f10x_tim.o(i.TIM_ITConfig)
    TIM_OC1Init                              0x0800276d   Thumb Code   132  stm32f10x_tim.o(i.TIM_OC1Init)
    TIM_OC1PreloadConfig                     0x08002805   Thumb Code    18  stm32f10x_tim.o(i.TIM_OC1PreloadConfig)
    TIM_OC2Init                              0x08002819   Thumb Code   154  stm32f10x_tim.o(i.TIM_OC2Init)
    TIM_OC2PreloadConfig                     0x080028bd   Thumb Code    26  stm32f10x_tim.o(i.TIM_OC2PreloadConfig)
    TIM_OC3Init                              0x080028d9   Thumb Code   150  stm32f10x_tim.o(i.TIM_OC3Init)
    TIM_OC3PreloadConfig                     0x08002979   Thumb Code    18  stm32f10x_tim.o(i.TIM_OC3PreloadConfig)
    TIM_OC4Init                              0x0800298d   Thumb Code   114  stm32f10x_tim.o(i.TIM_OC4Init)
    TIM_OC4PreloadConfig                     0x08002a09   Thumb Code    26  stm32f10x_tim.o(i.TIM_OC4PreloadConfig)
    TIM_OCStructInit                         0x08002a23   Thumb Code    20  stm32f10x_tim.o(i.TIM_OCStructInit)
    TIM_SetCounter                           0x08002a37   Thumb Code     4  stm32f10x_tim.o(i.TIM_SetCounter)
    TIM_SetIC1Prescaler                      0x08002a3b   Thumb Code    18  stm32f10x_tim.o(i.TIM_SetIC1Prescaler)
    TIM_SetIC2Prescaler                      0x08002a4d   Thumb Code    26  stm32f10x_tim.o(i.TIM_SetIC2Prescaler)
    TIM_SetIC3Prescaler                      0x08002a67   Thumb Code    18  stm32f10x_tim.o(i.TIM_SetIC3Prescaler)
    TIM_SetIC4Prescaler                      0x08002a79   Thumb Code    26  stm32f10x_tim.o(i.TIM_SetIC4Prescaler)
    TIM_TimeBaseInit                         0x08002a95   Thumb Code   122  stm32f10x_tim.o(i.TIM_TimeBaseInit)
    TIM_TimeBaseStructInit                   0x08002b39   Thumb Code    18  stm32f10x_tim.o(i.TIM_TimeBaseStructInit)
    Timer_Count_Auto_Reduce                  0x08002b4d   Thumb Code    16  timer.o(i.Timer_Count_Auto_Reduce)
    Timer_Get_Count                          0x08002b61   Thumb Code    18  timer.o(i.Timer_Get_Count)
    Timer_Set_Count                          0x08002b79   Thumb Code    10  timer.o(i.Timer_Set_Count)
    UART1_Init                               0x08002b89   Thumb Code   182  uart1.o(i.UART1_Init)
    UART1_Put_Char                           0x08002c49   Thumb Code    34  uart1.o(i.UART1_Put_Char)
    UART3_Init                               0x08002c79   Thumb Code   188  uart3.o(i.UART3_Init)
    UART3_Put_Char                           0x08002d3d   Thumb Code    34  uart3.o(i.UART3_Put_Char)
    USART1_IRQHandler                        0x08002d6d   Thumb Code   100  uart1.o(i.USART1_IRQHandler)
    USART3_IRQHandler                        0x08002de1   Thumb Code   118  uart3.o(i.USART3_IRQHandler)
    USART_ClearFlag                          0x08002e69   Thumb Code    18  stm32f10x_usart.o(i.USART_ClearFlag)
    USART_ClearITPendingBit                  0x08002e7b   Thumb Code    30  stm32f10x_usart.o(i.USART_ClearITPendingBit)
    USART_Cmd                                0x08002e99   Thumb Code    24  stm32f10x_usart.o(i.USART_Cmd)
    USART_GetITStatus                        0x08002eb1   Thumb Code    84  stm32f10x_usart.o(i.USART_GetITStatus)
    USART_ITConfig                           0x08002f05   Thumb Code    74  stm32f10x_usart.o(i.USART_ITConfig)
    USART_Init                               0x08002f51   Thumb Code   210  stm32f10x_usart.o(i.USART_Init)
    USART_ReceiveData                        0x08003029   Thumb Code    10  stm32f10x_usart.o(i.USART_ReceiveData)
    USART_SendData                           0x08003033   Thumb Code     8  stm32f10x_usart.o(i.USART_SendData)
    Upper_Data_Receive                       0x0800303d   Thumb Code   222  protocol.o(i.Upper_Data_Receive)
    __scatterload_copy                       0x08003131   Thumb Code    14  handlers.o(i.__scatterload_copy)
    __scatterload_null                       0x0800313f   Thumb Code     2  handlers.o(i.__scatterload_null)
    __scatterload_zeroinit                   0x08003141   Thumb Code    14  handlers.o(i.__scatterload_zeroinit)
    jy901_calibration                        0x08003151   Thumb Code    52  jy901.o(i.jy901_calibration)
    jy901_init                               0x08003195   Thumb Code    40  jy901.o(i.jy901_init)
    main                                     0x080031c9   Thumb Code   196  main.o(i.main)
    reset_Uk                                 0x0800329b   Thumb Code    10  pid.o(i.reset_Uk)
    sendcmd                                  0x080032a5   Thumb Code    24  jy901.o(i.sendcmd)
    Region$$Table$$Base                      0x080032bc   Number         0  anon$$obj.o(Region$$Table)
    Region$$Table$$Limit                     0x080032dc   Number         0  anon$$obj.o(Region$$Table)
    pid_Yaw                                  0x20000000   Data          28  pid.o(.data)
    s_offset                                 0x2000001c   Data           4  pid.o(.data)
    f_kp                                     0x20000020   Data           4  pid.o(.data)
    f_ki                                     0x20000024   Data           4  pid.o(.data)
    f_kd                                     0x20000028   Data           4  pid.o(.data)
    Velocity_KP                              0x2000002c   Data           4  pid.o(.data)
    Velocity_KI                              0x20000030   Data           4  pid.o(.data)
    motorLeft                                0x20000068   Data           4  app_motion_control.o(.data)
    motorRight                               0x2000006c   Data           4  app_motion_control.o(.data)
    leftSpeedNow                             0x20000070   Data           4  app_motion_control.o(.data)
    rightSpeedNow                            0x20000074   Data           4  app_motion_control.o(.data)
    leftSpeedSet                             0x20000078   Data           4  app_motion_control.o(.data)
    rightSpeedSet                            0x2000007c   Data           4  app_motion_control.o(.data)
    leftWheelEncoderNow                      0x20000080   Data           4  app_motion_control.o(.data)
    rightWheelEncoderNow                     0x20000084   Data           4  app_motion_control.o(.data)
    leftWheelEncoderLast                     0x20000088   Data           4  app_motion_control.o(.data)
    rightWheelEncoderLast                    0x2000008c   Data           4  app_motion_control.o(.data)
    g_stop_count                             0x20000090   Data           4  app_motion_control.o(.data)
    g_car_abandon                            0x20000094   Data           2  app_motion_control.o(.data)
    RxIndex                                  0x200000a8   Data           1  protocol.o(.data)
    RxFlag                                   0x200000a9   Data           1  protocol.o(.data)
    New_CMD_flag                             0x200000aa   Data           1  protocol.o(.data)
    New_CMD_length                           0x200000ab   Data           1  protocol.o(.data)
    stcTime                                  0x200000ac   Data           8  jy901.o(.data)
    stcAcc                                   0x200000b4   Data           8  jy901.o(.data)
    stcGyro                                  0x200000bc   Data           8  jy901.o(.data)
    stcAngle                                 0x200000c4   Data           8  jy901.o(.data)
    stcMag                                   0x200000cc   Data           8  jy901.o(.data)
    stcDStatus                               0x200000d4   Data           8  jy901.o(.data)
    stcPress                                 0x200000dc   Data           8  jy901.o(.data)
    stcLonLat                                0x200000e4   Data           8  jy901.o(.data)
    stcGPSV                                  0x200000ec   Data           8  jy901.o(.data)
    stcQ                                     0x200000f4   Data           8  jy901.o(.data)
    JY_CMD_UNLOCK                            0x200000fc   Data           5  jy901.o(.data)
    JY_CMD_ALGORITHM                         0x20000101   Data           5  jy901.o(.data)
    JY_CMD_ACC_CALIBRATION                   0x20000106   Data           5  jy901.o(.data)
    JY_CMD_YAW_ZERO                          0x2000010b   Data           5  jy901.o(.data)
    JY_CMD_SAVE_CFG                          0x20000110   Data           5  jy901.o(.data)
    ucTimeFlag                               0x2000011a   Data           1  delay.o(.data)
    ucDelayFlag                              0x2000011b   Data           1  delay.o(.data)
    g_bat_state                              0x20000120   Data           1  adc.o(.data)
    Voltage_Z100                             0x20000124   Data           4  adc.o(.data)
    Voltage_Low_Count                        0x20000128   Data           4  adc.o(.data)
    g_Encoder_A_Now                          0x2000012c   Data           4  encoder.o(.data)
    g_Encoder_B_Now                          0x20000130   Data           4  encoder.o(.data)
    Count_Beat                               0x20000134   Data           2  timer.o(.data)
    temp                                     0x20000138   Data           4  timer.o(.data)
    g_attitude                               0x20000150   Data          12  pid.o(.bss)
    pid_Task_Left                            0x2000015c   Data          36  pid.o(.bss)
    pid_Task_Right                           0x20000180   Data          36  pid.o(.bss)
    RxBuffer                                 0x200001a4   Data          15  protocol.o(.bss)
    __initial_sp                             0x200008b0   Data           0  startup_stm32f10x_hd.o(STACK)



==============================================================================

Memory Map of the image

  Image Entry point : 0x08000131

  Load Region LR_IROM1 (Base: 0x08000000, Size: 0x0000342c, Max: 0x00010000, ABSOLUTE, COMPRESSED[0x0000331c])

    Execution Region ER_IROM1 (Exec base: 0x08000000, Load base: 0x08000000, Size: 0x000032dc, Max: 0x00010000, ABSOLUTE)

    Exec Addr    Load Addr    Size         Type   Attr      Idx    E Section Name        Object

    0x08000000   0x08000000   0x00000130   Data   RO         1456    RESET               startup_stm32f10x_hd.o
    0x08000130   0x08000130   0x00000000   Code   RO         2309  * .ARM.Collect$$$$00000000  mc_w.l(entry.o)
    0x08000130   0x08000130   0x00000004   Code   RO         2344    .ARM.Collect$$$$00000001  mc_w.l(entry2.o)
    0x08000134   0x08000134   0x00000004   Code   RO         2347    .ARM.Collect$$$$00000004  mc_w.l(entry5.o)
    0x08000138   0x08000138   0x00000000   Code   RO         2349    .ARM.Collect$$$$00000008  mc_w.l(entry7b.o)
    0x08000138   0x08000138   0x00000000   Code   RO         2351    .ARM.Collect$$$$0000000A  mc_w.l(entry8b.o)
    0x08000138   0x08000138   0x00000008   Code   RO         2352    .ARM.Collect$$$$0000000B  mc_w.l(entry9a.o)
    0x08000140   0x08000140   0x00000004   Code   RO         2359    .ARM.Collect$$$$0000000E  mc_w.l(entry12b.o)
    0x08000144   0x08000144   0x00000000   Code   RO         2354    .ARM.Collect$$$$0000000F  mc_w.l(entry10a.o)
    0x08000144   0x08000144   0x00000000   Code   RO         2356    .ARM.Collect$$$$00000011  mc_w.l(entry11a.o)
    0x08000144   0x08000144   0x00000004   Code   RO         2345    .ARM.Collect$$$$00002712  mc_w.l(entry2.o)
    0x08000148   0x08000148   0x00000024   Code   RO         1457    .text               startup_stm32f10x_hd.o
    0x0800016c   0x0800016c   0x00000064   Code   RO         2314    .text               mf_w.l(fmul.o)
    0x080001d0   0x080001d0   0x000000e4   Code   RO         2316    .text               mf_w.l(dmul.o)
    0x080002b4   0x080002b4   0x000000de   Code   RO         2318    .text               mf_w.l(ddiv.o)
    0x08000392   0x08000392   0x00000012   Code   RO         2320    .text               mf_w.l(fflti.o)
    0x080003a4   0x080003a4   0x0000000a   Code   RO         2322    .text               mf_w.l(ffltui.o)
    0x080003ae   0x080003ae   0x00000022   Code   RO         2324    .text               mf_w.l(dflti.o)
    0x080003d0   0x080003d0   0x00000032   Code   RO         2326    .text               mf_w.l(ffixi.o)
    0x08000402   0x08000402   0x0000003e   Code   RO         2328    .text               mf_w.l(dfixi.o)
    0x08000440   0x08000440   0x00000032   Code   RO         2330    .text               mf_w.l(dfixui.o)
    0x08000472   0x08000472   0x00000026   Code   RO         2332    .text               mf_w.l(f2d.o)
    0x08000498   0x08000498   0x00000030   Code   RO         2334    .text               mf_w.l(cdcmple.o)
    0x080004c8   0x080004c8   0x00000038   Code   RO         2338    .text               mf_w.l(d2f.o)
    0x08000500   0x08000500   0x00000014   Code   RO         2340    .text               mf_w.l(cfcmple.o)
    0x08000514   0x08000514   0x00000014   Code   RO         2342    .text               mf_w.l(cfrcmple.o)
    0x08000528   0x08000528   0x00000020   Code   RO         2360    .text               mc_w.l(llushr.o)
    0x08000548   0x08000548   0x00000000   Code   RO         2362    .text               mc_w.l(iusefp.o)
    0x08000548   0x08000548   0x0000006e   Code   RO         2363    .text               mf_w.l(fepilogue.o)
    0x080005b6   0x080005b6   0x000000ba   Code   RO         2365    .text               mf_w.l(depilogue.o)
    0x08000670   0x08000670   0x00000024   Code   RO         2367    .text               mc_w.l(init.o)
    0x08000694   0x08000694   0x0000001e   Code   RO         2369    .text               mc_w.l(llshl.o)
    0x080006b2   0x080006b2   0x00000056   Code   RO         2379    .text               mc_w.l(__dczerorl2.o)
    0x08000708   0x08000708   0x00000016   Code   RO         1469    i.ADC_Cmd           stm32f10x_adc.o
    0x0800071e   0x0800071e   0x00000002   PAD
    0x08000720   0x08000720   0x0000005c   Code   RO         1471    i.ADC_DeInit        stm32f10x_adc.o
    0x0800077c   0x0800077c   0x00000014   Code   RO         1477    i.ADC_GetCalibrationStatus  stm32f10x_adc.o
    0x08000790   0x08000790   0x00000008   Code   RO         1478    i.ADC_GetConversionValue  stm32f10x_adc.o
    0x08000798   0x08000798   0x00000012   Code   RO         1480    i.ADC_GetFlagStatus  stm32f10x_adc.o
    0x080007aa   0x080007aa   0x00000014   Code   RO         1483    i.ADC_GetResetCalibrationStatus  stm32f10x_adc.o
    0x080007be   0x080007be   0x00000002   PAD
    0x080007c0   0x080007c0   0x00000050   Code   RO         1487    i.ADC_Init          stm32f10x_adc.o
    0x08000810   0x08000810   0x000000b8   Code   RO         1491    i.ADC_RegularChannelConfig  stm32f10x_adc.o
    0x080008c8   0x080008c8   0x0000000a   Code   RO         1492    i.ADC_ResetCalibration  stm32f10x_adc.o
    0x080008d2   0x080008d2   0x00000016   Code   RO         1494    i.ADC_SoftwareStartConvCmd  stm32f10x_adc.o
    0x080008e8   0x080008e8   0x0000000a   Code   RO         1496    i.ADC_StartCalibration  stm32f10x_adc.o
    0x080008f2   0x080008f2   0x00000002   PAD
    0x080008f4   0x080008f4   0x000000b0   Code   RO          339    i.Acc_Send_Data     jy901.o
    0x080009a4   0x080009a4   0x00000028   Code   RO          607    i.Adc_Get_Average   adc.o
    0x080009cc   0x080009cc   0x0000001c   Code   RO          608    i.Adc_Get_Battery_Volotage  adc.o
    0x080009e8   0x080009e8   0x00000024   Code   RO          609    i.Adc_Get_Measure_Volotage  adc.o
    0x08000a0c   0x08000a0c   0x0000008c   Code   RO          610    i.Adc_Init          adc.o
    0x08000a98   0x08000a98   0x000000b0   Code   RO          340    i.Angle_Send_Data   jy901.o
    0x08000b48   0x08000b48   0x00000014   Code   RO          506    i.BUZZER_OFF        dio.o
    0x08000b5c   0x08000b5c   0x00000014   Code   RO          507    i.BUZZER_ON         dio.o
    0x08000b70   0x08000b70   0x00000014   Code   RO          611    i.Bat_Is_Low_Power  adc.o
    0x08000b84   0x08000b84   0x0000006c   Code   RO          612    i.Bat_Update_Power_State  adc.o
    0x08000bf0   0x08000bf0   0x00000030   Code   RO          279    i.Clear_CMD_Flag    protocol.o
    0x08000c20   0x08000c20   0x0000011c   Code   RO          341    i.CopeSerial3Data   jy901.o
    0x08000d3c   0x08000d3c   0x000000a8   Code   RO          400    i.Delay_Ms          delay.o
    0x08000de4   0x08000de4   0x00000024   Code   RO          733    i.Encoder_Get_Count_Now  encoder.o
    0x08000e08   0x08000e08   0x0000000c   Code   RO          734    i.Encoder_Init      encoder.o
    0x08000e14   0x08000e14   0x000000c4   Code   RO          735    i.Encoder_Init_TIM3  encoder.o
    0x08000ed8   0x08000ed8   0x000000c4   Code   RO          736    i.Encoder_Init_TIM4  encoder.o
    0x08000f9c   0x08000f9c   0x00000044   Code   RO          737    i.Encoder_Read_CNT  encoder.o
    0x08000fe0   0x08000fe0   0x00000040   Code   RO          738    i.Encoder_Update_Count  encoder.o
    0x08001020   0x08001020   0x00000040   Code   RO          508    i.GPIO_Config       dio.o
    0x08001060   0x08001060   0x00000116   Code   RO          944    i.GPIO_Init         stm32f10x_gpio.o
    0x08001176   0x08001176   0x00000004   Code   RO          951    i.GPIO_ResetBits    stm32f10x_gpio.o
    0x0800117a   0x0800117a   0x00000004   Code   RO          952    i.GPIO_SetBits      stm32f10x_gpio.o
    0x0800117e   0x0800117e   0x00000002   PAD
    0x08001180   0x08001180   0x00000034   Code   RO          613    i.Get_Adc           adc.o
    0x080011b4   0x080011b4   0x0000000c   Code   RO          281    i.Get_CMD_Length    protocol.o
    0x080011c0   0x080011c0   0x000000e0   Code   RO          222    i.Get_Motor_Speed   app_motion_control.o
    0x080012a0   0x080012a0   0x00000008   Code   RO          282    i.Get_RxBuffer      protocol.o
    0x080012a8   0x080012a8   0x000000b0   Code   RO          342    i.Gyro_Send_Data    jy901.o
    0x08001358   0x08001358   0x0000000c   Code   RO          283    i.Is_Recv_New_Cmd   protocol.o
    0x08001364   0x08001364   0x00000014   Code   RO          509    i.LED_OFF           dio.o
    0x08001378   0x08001378   0x00000014   Code   RO          510    i.LED_ON            dio.o
    0x0800138c   0x0800138c   0x00000098   Code   RO          118    i.Left_Pid_Update_Value  pid.o
    0x08001424   0x08001424   0x0000002c   Code   RO          675    i.MOTOR_GPIO_Init   motor.o
    0x08001450   0x08001450   0x000000b0   Code   RO          223    i.Motion_Control_10ms  app_motion_control.o
    0x08001500   0x08001500   0x00000128   Code   RO          224    i.Motion_Send_Data  app_motion_control.o
    0x08001628   0x08001628   0x00000018   Code   RO          225    i.Motion_Set_PWM    app_motion_control.o
    0x08001640   0x08001640   0x00000090   Code   RO          226    i.Motion_Test_SpeedSet  app_motion_control.o
    0x080016d0   0x080016d0   0x00000018   Code   RO          676    i.Motor_Close_Brake  motor.o
    0x080016e8   0x080016e8   0x000000f2   Code   RO          677    i.Motor_PWM_Init    motor.o
    0x080017da   0x080017da   0x00000002   PAD
    0x080017dc   0x080017dc   0x0000003c   Code   RO          678    i.Motor_Set_Pwm     motor.o
    0x08001818   0x08001818   0x00000026   Code   RO          679    i.Motor_m1_pwm      motor.o
    0x0800183e   0x0800183e   0x00000002   PAD
    0x08001840   0x08001840   0x00000030   Code   RO          680    i.Motor_m2_pwm      motor.o
    0x08001870   0x08001870   0x00000070   Code   RO          894    i.NVIC_Init         misc.o
    0x080018e0   0x080018e0   0x00000014   Code   RO          895    i.NVIC_PriorityGroupConfig  misc.o
    0x080018f4   0x080018f4   0x00000060   Code   RO          121    i.PID_Init          pid.o
    0x08001954   0x08001954   0x00000014   Code   RO          122    i.PID_Reset_Yaw     pid.o
    0x08001968   0x08001968   0x00000050   Code   RO          123    i.PID_common        pid.o
    0x080019b8   0x080019b8   0x00000200   Code   RO          284    i.Parse_Cmd_Data    protocol.o
    0x08001bb8   0x08001bb8   0x00000060   Code   RO          126    i.Pid_Ctrl          pid.o
    0x08001c18   0x08001c18   0x00000074   Code   RO          127    i.Pid_Which         pid.o
    0x08001c8c   0x08001c8c   0x00000018   Code   RO         1060    i.RCC_ADCCLKConfig  stm32f10x_rcc.o
    0x08001ca4   0x08001ca4   0x00000020   Code   RO         1062    i.RCC_APB1PeriphClockCmd  stm32f10x_rcc.o
    0x08001cc4   0x08001cc4   0x00000020   Code   RO         1063    i.RCC_APB1PeriphResetCmd  stm32f10x_rcc.o
    0x08001ce4   0x08001ce4   0x00000020   Code   RO         1064    i.RCC_APB2PeriphClockCmd  stm32f10x_rcc.o
    0x08001d04   0x08001d04   0x00000020   Code   RO         1065    i.RCC_APB2PeriphResetCmd  stm32f10x_rcc.o
    0x08001d24   0x08001d24   0x000000d4   Code   RO         1072    i.RCC_GetClocksFreq  stm32f10x_rcc.o
    0x08001df8   0x08001df8   0x00000098   Code   RO          128    i.Right_Pid_Update_Value  pid.o
    0x08001e90   0x08001e90   0x000000c4   Code   RO          614    i.Sensor_Send_Data  adc.o
    0x08001f54   0x08001f54   0x00000008   Code   RO          842    i.SetSysClock       system_stm32f10x.o
    0x08001f5c   0x08001f5c   0x000000e0   Code   RO          843    i.SetSysClockTo72   system_stm32f10x.o
    0x0800203c   0x0800203c   0x00000020   Code   RO          401    i.SysTick_Handler   delay.o
    0x0800205c   0x0800205c   0x0000007c   Code   RO          402    i.SysTick_init      delay.o
    0x080020d8   0x080020d8   0x00000060   Code   RO          845    i.SystemInit        system_stm32f10x.o
    0x08002138   0x08002138   0x00000080   Code   RO         1755    i.TI1_Config        stm32f10x_tim.o
    0x080021b8   0x080021b8   0x00000098   Code   RO         1756    i.TI2_Config        stm32f10x_tim.o
    0x08002250   0x08002250   0x00000090   Code   RO         1757    i.TI3_Config        stm32f10x_tim.o
    0x080022e0   0x080022e0   0x00000098   Code   RO         1758    i.TI4_Config        stm32f10x_tim.o
    0x08002378   0x08002378   0x00000070   Code   RO          798    i.TIM1_Init         timer.o
    0x080023e8   0x080023e8   0x0000002c   Code   RO          227    i.TIM1_UP_IRQHandler  app_motion_control.o
    0x08002414   0x08002414   0x00000018   Code   RO         1759    i.TIM_ARRPreloadConfig  stm32f10x_tim.o
    0x0800242c   0x0800242c   0x00000006   Code   RO         1765    i.TIM_ClearFlag     stm32f10x_tim.o
    0x08002432   0x08002432   0x00000006   Code   RO         1766    i.TIM_ClearITPendingBit  stm32f10x_tim.o
    0x08002438   0x08002438   0x00000018   Code   RO         1771    i.TIM_Cmd           stm32f10x_tim.o
    0x08002450   0x08002450   0x000001e8   Code   RO         1776    i.TIM_DeInit        stm32f10x_tim.o
    0x08002638   0x08002638   0x00000042   Code   RO         1780    i.TIM_EncoderInterfaceConfig  stm32f10x_tim.o
    0x0800267a   0x0800267a   0x00000022   Code   RO         1792    i.TIM_GetITStatus   stm32f10x_tim.o
    0x0800269c   0x0800269c   0x000000ac   Code   RO         1794    i.TIM_ICInit        stm32f10x_tim.o
    0x08002748   0x08002748   0x00000012   Code   RO         1795    i.TIM_ICStructInit  stm32f10x_tim.o
    0x0800275a   0x0800275a   0x00000012   Code   RO         1796    i.TIM_ITConfig      stm32f10x_tim.o
    0x0800276c   0x0800276c   0x00000098   Code   RO         1800    i.TIM_OC1Init       stm32f10x_tim.o
    0x08002804   0x08002804   0x00000012   Code   RO         1803    i.TIM_OC1PreloadConfig  stm32f10x_tim.o
    0x08002816   0x08002816   0x00000002   PAD
    0x08002818   0x08002818   0x000000a4   Code   RO         1805    i.TIM_OC2Init       stm32f10x_tim.o
    0x080028bc   0x080028bc   0x0000001a   Code   RO         1808    i.TIM_OC2PreloadConfig  stm32f10x_tim.o
    0x080028d6   0x080028d6   0x00000002   PAD
    0x080028d8   0x080028d8   0x000000a0   Code   RO         1810    i.TIM_OC3Init       stm32f10x_tim.o
    0x08002978   0x08002978   0x00000012   Code   RO         1813    i.TIM_OC3PreloadConfig  stm32f10x_tim.o
    0x0800298a   0x0800298a   0x00000002   PAD
    0x0800298c   0x0800298c   0x0000007c   Code   RO         1815    i.TIM_OC4Init       stm32f10x_tim.o
    0x08002a08   0x08002a08   0x0000001a   Code   RO         1817    i.TIM_OC4PreloadConfig  stm32f10x_tim.o
    0x08002a22   0x08002a22   0x00000014   Code   RO         1818    i.TIM_OCStructInit  stm32f10x_tim.o
    0x08002a36   0x08002a36   0x00000004   Code   RO         1836    i.TIM_SetCounter    stm32f10x_tim.o
    0x08002a3a   0x08002a3a   0x00000012   Code   RO         1837    i.TIM_SetIC1Prescaler  stm32f10x_tim.o
    0x08002a4c   0x08002a4c   0x0000001a   Code   RO         1838    i.TIM_SetIC2Prescaler  stm32f10x_tim.o
    0x08002a66   0x08002a66   0x00000012   Code   RO         1839    i.TIM_SetIC3Prescaler  stm32f10x_tim.o
    0x08002a78   0x08002a78   0x0000001a   Code   RO         1840    i.TIM_SetIC4Prescaler  stm32f10x_tim.o
    0x08002a92   0x08002a92   0x00000002   PAD
    0x08002a94   0x08002a94   0x000000a4   Code   RO         1842    i.TIM_TimeBaseInit  stm32f10x_tim.o
    0x08002b38   0x08002b38   0x00000012   Code   RO         1843    i.TIM_TimeBaseStructInit  stm32f10x_tim.o
    0x08002b4a   0x08002b4a   0x00000002   PAD
    0x08002b4c   0x08002b4c   0x00000014   Code   RO          799    i.Timer_Count_Auto_Reduce  timer.o
    0x08002b60   0x08002b60   0x00000018   Code   RO          800    i.Timer_Get_Count   timer.o
    0x08002b78   0x08002b78   0x00000010   Code   RO          801    i.Timer_Set_Count   timer.o
    0x08002b88   0x08002b88   0x000000c0   Code   RO          449    i.UART1_Init        uart1.o
    0x08002c48   0x08002c48   0x00000030   Code   RO          450    i.UART1_Put_Char    uart1.o
    0x08002c78   0x08002c78   0x000000c4   Code   RO          553    i.UART3_Init        uart3.o
    0x08002d3c   0x08002d3c   0x00000030   Code   RO          554    i.UART3_Put_Char    uart3.o
    0x08002d6c   0x08002d6c   0x00000074   Code   RO          452    i.USART1_IRQHandler  uart1.o
    0x08002de0   0x08002de0   0x00000088   Code   RO          556    i.USART3_IRQHandler  uart3.o
    0x08002e68   0x08002e68   0x00000012   Code   RO         1268    i.USART_ClearFlag   stm32f10x_usart.o
    0x08002e7a   0x08002e7a   0x0000001e   Code   RO         1269    i.USART_ClearITPendingBit  stm32f10x_usart.o
    0x08002e98   0x08002e98   0x00000018   Code   RO         1272    i.USART_Cmd         stm32f10x_usart.o
    0x08002eb0   0x08002eb0   0x00000054   Code   RO         1276    i.USART_GetITStatus  stm32f10x_usart.o
    0x08002f04   0x08002f04   0x0000004a   Code   RO         1278    i.USART_ITConfig    stm32f10x_usart.o
    0x08002f4e   0x08002f4e   0x00000002   PAD
    0x08002f50   0x08002f50   0x000000d8   Code   RO         1279    i.USART_Init        stm32f10x_usart.o
    0x08003028   0x08003028   0x0000000a   Code   RO         1286    i.USART_ReceiveData  stm32f10x_usart.o
    0x08003032   0x08003032   0x00000008   Code   RO         1289    i.USART_SendData    stm32f10x_usart.o
    0x0800303a   0x0800303a   0x00000002   PAD
    0x0800303c   0x0800303c   0x000000f4   Code   RO          285    i.Upper_Data_Receive  protocol.o
    0x08003130   0x08003130   0x0000000e   Code   RO         2373    i.__scatterload_copy  mc_w.l(handlers.o)
    0x0800313e   0x0800313e   0x00000002   Code   RO         2374    i.__scatterload_null  mc_w.l(handlers.o)
    0x08003140   0x08003140   0x0000000e   Code   RO         2375    i.__scatterload_zeroinit  mc_w.l(handlers.o)
    0x0800314e   0x0800314e   0x00000002   PAD
    0x08003150   0x08003150   0x00000044   Code   RO          343    i.jy901_calibration  jy901.o
    0x08003194   0x08003194   0x00000034   Code   RO          344    i.jy901_init        jy901.o
    0x080031c8   0x080031c8   0x000000c4   Code   RO            3    i.main              main.o
    0x0800328c   0x0800328c   0x0000000e   Code   RO          681    i.myabs             motor.o
    0x0800329a   0x0800329a   0x0000000a   Code   RO          130    i.reset_Uk          pid.o
    0x080032a4   0x080032a4   0x00000018   Code   RO          345    i.sendcmd           jy901.o
    0x080032bc   0x080032bc   0x00000020   Data   RO         2371    Region$$Table       anon$$obj.o


    Execution Region RW_IRAM1 (Exec base: 0x20000000, Load base: 0x080032dc, Size: 0x000008b0, Max: 0x00005000, ABSOLUTE, COMPRESSED[0x00000040])

    Exec Addr    Load Addr    Size         Type   Attr      Idx    E Section Name        Object

    0x20000000   COMPRESSED   0x00000068   Data   RW          132    .data               pid.o
    0x20000068   COMPRESSED   0x00000040   Data   RW          228    .data               app_motion_control.o
    0x200000a8   COMPRESSED   0x00000004   Data   RW          287    .data               protocol.o
    0x200000ac   COMPRESSED   0x0000006a   Data   RW          347    .data               jy901.o
    0x20000116   COMPRESSED   0x00000006   Data   RW          404    .data               delay.o
    0x2000011c   COMPRESSED   0x00000002   Data   RW          455    .data               uart1.o
    0x2000011e   COMPRESSED   0x00000002   Data   RW          558    .data               uart3.o
    0x20000120   COMPRESSED   0x0000000c   Data   RW          615    .data               adc.o
    0x2000012c   COMPRESSED   0x00000008   Data   RW          740    .data               encoder.o
    0x20000134   COMPRESSED   0x00000008   Data   RW          802    .data               timer.o
    0x2000013c   COMPRESSED   0x00000014   Data   RW         1092    .data               stm32f10x_rcc.o
    0x20000150        -       0x00000054   Zero   RW          131    .bss                pid.o
    0x200001a4        -       0x0000000f   Zero   RW          286    .bss                protocol.o
    0x200001b3        -       0x000000fa   Zero   RW          346    .bss                jy901.o
    0x200002ad        -       0x00000100   Zero   RW          454    .bss                uart1.o
    0x200003ad        -       0x00000100   Zero   RW          557    .bss                uart3.o
    0x200004ad   COMPRESSED   0x00000003   PAD
    0x200004b0        -       0x00000400   Zero   RW         1454    STACK               startup_stm32f10x_hd.o


==============================================================================

Image component sizes


      Code (inc. data)   RO Data    RW Data    ZI Data      Debug   Object Name

       620         58          0         12          0       4733   adc.o
       908        112          0         64          0       4676   app_motion_control.o
       324         28          0          6          0       2033   delay.o
       144         32          0          0          0       2198   dio.o
       572         46          0          8          0       3739   encoder.o
       956         98          0        106        250       5306   jy901.o
       196          0          0          0          0     264435   main.o
       132         22          0          0          0       1483   misc.o
       470         22          0          0          0       3757   motor.o
       722         72          0        104         84       8212   pid.o
       836         56          0          4         15       5055   protocol.o
        36          8        304          0       1024        816   startup_stm32f10x_hd.o
       486         24          0          0          0       8386   stm32f10x_adc.o
       286          0          0          0          0       2952   stm32f10x_gpio.o
       364         50          0         20          0       5987   stm32f10x_rcc.o
      2414        264          0          0          0      19012   stm32f10x_tim.o
       464          6          0          0          0       6567   stm32f10x_usart.o
       328         28          0          0          0       1917   system_stm32f10x.o
       172         22          0          8          0       2316   timer.o
       356         40          0          2        256       2586   uart1.o
       380         40          0          2        256       2430   uart3.o

    ----------------------------------------------------------------------
     11192       1028        336        336       1888     358596   Object Totals
         0          0         32          0          0          0   (incl. Generated)
        26          0          0          0          3          0   (incl. Padding)

    ----------------------------------------------------------------------

      Code (inc. data)   RO Data    RW Data    ZI Data      Debug   Library Member Name

        86          0          0          0          0          0   __dczerorl2.o
         0          0          0          0          0          0   entry.o
         0          0          0          0          0          0   entry10a.o
         0          0          0          0          0          0   entry11a.o
         4          0          0          0          0          0   entry12b.o
         8          4          0          0          0          0   entry2.o
         4          0          0          0          0          0   entry5.o
         0          0          0          0          0          0   entry7b.o
         0          0          0          0          0          0   entry8b.o
         8          4          0          0          0          0   entry9a.o
        30          0          0          0          0          0   handlers.o
        36          8          0          0          0         68   init.o
         0          0          0          0          0          0   iusefp.o
        30          0          0          0          0         68   llshl.o
        32          0          0          0          0         68   llushr.o
        48          0          0          0          0         68   cdcmple.o
        20          0          0          0          0         68   cfcmple.o
        20          0          0          0          0         68   cfrcmple.o
        56          0          0          0          0         88   d2f.o
       222          0          0          0          0        100   ddiv.o
       186          0          0          0          0        176   depilogue.o
        62          0          0          0          0         80   dfixi.o
        50          0          0          0          0         76   dfixui.o
        34          0          0          0          0         76   dflti.o
       228          0          0          0          0         96   dmul.o
        38          0          0          0          0         68   f2d.o
       110          0          0          0          0        168   fepilogue.o
        50          0          0          0          0         68   ffixi.o
        18          0          0          0          0         68   fflti.o
        10          0          0          0          0         68   ffltui.o
       100          0          0          0          0         76   fmul.o

    ----------------------------------------------------------------------
      1492         16          0          0          0       1616   Library Totals
         2          0          0          0          0          0   (incl. Padding)

    ----------------------------------------------------------------------

      Code (inc. data)   RO Data    RW Data    ZI Data      Debug   Library Name

       238         16          0          0          0        204   mc_w.l
      1252          0          0          0          0       1412   mf_w.l

    ----------------------------------------------------------------------
      1492         16          0          0          0       1616   Library Totals

    ----------------------------------------------------------------------

==============================================================================


      Code (inc. data)   RO Data    RW Data    ZI Data      Debug   

     12684       1044        336        336       1888     353008   Grand Totals
     12684       1044        336         64       1888     353008   ELF Image Totals (compressed)
     12684       1044        336         64          0          0   ROM Totals

==============================================================================

    Total RO  Size (Code + RO Data)                13020 (  12.71kB)
    Total RW  Size (RW Data + ZI Data)              2224 (   2.17kB)
    Total ROM Size (Code + RO Data + RW Data)      13084 (  12.78kB)

==============================================================================

